{
  "contractName": "Hello",
  "abi": [
    {
      "constant": true,
      "inputs": [],
      "name": "mymsg",
      "outputs": [
        {
          "name": "",
          "type": "string"
        }
      ],
      "payable": false,
      "stateMutability": "view",
      "type": "function"
    },
    {
      "constant": true,
      "inputs": [],
      "name": "value",
      "outputs": [
        {
          "name": "",
          "type": "uint256"
        }
      ],
      "payable": false,
      "stateMutability": "view",
      "type": "function"
    },
    {
      "inputs": [
        {
          "name": "_msg",
          "type": "string"
        },
        {
          "name": "_value",
          "type": "uint256"
        }
      ],
      "payable": false,
      "stateMutability": "nonpayable",
      "type": "constructor"
    },
    {
      "payable": true,
      "stateMutability": "payable",
      "type": "fallback"
    },
    {
      "constant": true,
      "inputs": [],
      "name": "GetMessage",
      "outputs": [
        {
          "name": "",
          "type": "string"
        }
      ],
      "payable": false,
      "stateMutability": "view",
      "type": "function"
    },
    {
      "constant": false,
      "inputs": [
        {
          "name": "Name",
          "type": "string"
        }
      ],
      "name": "SetMessage",
      "outputs": [],
      "payable": false,
      "stateMutability": "nonpayable",
      "type": "function"
    }
  ],
  "bytecode": "0x608060405234801561001057600080fd5b5060405161056938038061056983398101806040528101908080518201929190602001805190602001909291905050508160019080519060200190610056929190610065565b5080600281905550505061010a565b828054600181600116156101000203166002900490600052602060002090601f016020900481019282601f106100a657805160ff19168380011785556100d4565b828001600101855582156100d4579182015b828111156100d35782518255916020019190600101906100b8565b5b5090506100e191906100e5565b5090565b61010791905b808211156101035760008160009055506001016100eb565b5090565b90565b610450806101196000396000f300608060405260043610610062576000357c0100000000000000000000000000000000000000000000000000000000900463ffffffff16806303e33b531461006b578063218c5b3f146100fb5780633fa4f2451461018b57806388fabb3a146101b6575b34600281905550005b34801561007757600080fd5b5061008061021f565b6040518080602001828103825283818151815260200191508051906020019080838360005b838110156100c05780820151818401526020810190506100a5565b50505050905090810190601f1680156100ed5780820380516001836020036101000a031916815260200191505b509250505060405180910390f35b34801561010757600080fd5b506101106102c1565b6040518080602001828103825283818151815260200191508051906020019080838360005b83811015610150578082015181840152602081019050610135565b50505050905090810190601f16801561017d5780820380516001836020036101000a031916815260200191505b509250505060405180910390f35b34801561019757600080fd5b506101a061035f565b6040518082815260200191505060405180910390f35b3480156101c257600080fd5b5061021d600480360381019080803590602001908201803590602001908080601f0160208091040260200160405190810160405280939291908181526020018383808284378201915050505050509192919290505050610365565b005b606060008054600181600116156101000203166002900480601f0160208091040260200160405190810160405280929190818152602001828054600181600116156101000203166002900480156102b75780601f1061028c576101008083540402835291602001916102b7565b820191906000526020600020905b81548152906001019060200180831161029a57829003601f168201915b5050505050905090565b60018054600181600116156101000203166002900480601f0160208091040260200160405190810160405280929190818152602001828054600181600116156101000203166002900480156103575780601f1061032c57610100808354040283529160200191610357565b820191906000526020600020905b81548152906001019060200180831161033a57829003601f168201915b505050505081565b60025481565b806000908051906020019061037b92919061037f565b5050565b828054600181600116156101000203166002900490600052602060002090601f016020900481019282601f106103c057805160ff19168380011785556103ee565b828001600101855582156103ee579182015b828111156103ed5782518255916020019190600101906103d2565b5b5090506103fb91906103ff565b5090565b61042191905b8082111561041d576000816000905550600101610405565b5090565b905600a165627a7a7230582071c714d99d3193e7341b6861e958cb2fbe169de92a1025dede71a577218d5a770029",
  "source": "pragma solidity ^0.4.4;\ncontract Hello {\n//   string greeting;\n  string name;\nstring public mymsg;\nuint public value;\n \n constructor(string _msg, uint _value) public{\nmymsg = _msg;\nvalue = _value;\n}\n\nfunction() payable public{\n value = msg.value; \n}\n\n  function GetMessage() view public returns (string) {\n    return (name);\n  }\n\n   function SetMessage(string Name) public{\n    name = Name;\n  }\n}\n",
  "sourcePath": "/home/reginaldanthony/accion/Accion/Truffle_Samples/Demo/contracts/hello.sol",
  "compiler": {
    "name": "solc",
    "version": "0.4.24+commit.e67f0147.Emscripten.clang"
  },
  "schemaVersion": "2.0.1",
  "updatedAt": "2018-11-23T12:08:24.402Z"
}