{
  "contractName": "HelloEthSalon",
  "abi": [
    {
      "constant": true,
      "inputs": [],
      "name": "GetMessage",
      "outputs": [
        {
          "name": "",
          "type": "string"
        },
        {
          "name": "",
          "type": "string"
        }
      ],
      "payable": false,
      "stateMutability": "view",
      "type": "function"
    }
  ],
  "bytecode": "0x60806040526040805190810160405280600581526020017f48656c6c6f0000000000000000000000000000000000000000000000000000008152506000908051906020019061004f9291906100ae565b506040805190810160405280600881526020017f526567696e616c640000000000000000000000000000000000000000000000008152506001908051906020019061009b9291906100ae565b503480156100a857600080fd5b50610153565b828054600181600116156101000203166002900490600052602060002090601f016020900481019282601f106100ef57805160ff191683800117855561011d565b8280016001018555821561011d579182015b8281111561011c578251825591602001919060010190610101565b5b50905061012a919061012e565b5090565b61015091905b8082111561014c576000816000905550600101610134565b5090565b90565b6102b5806101626000396000f300608060405260043610610041576000357c0100000000000000000000000000000000000000000000000000000000900463ffffffff16806303e33b5314610046575b600080fd5b34801561005257600080fd5b5061005b610142565b604051808060200180602001838103835285818151815260200191508051906020019080838360005b8381101561009f578082015181840152602081019050610084565b50505050905090810190601f1680156100cc5780820380516001836020036101000a031916815260200191505b50838103825284818151815260200191508051906020019080838360005b838110156101055780820151818401526020810190506100ea565b50505050905090810190601f1680156101325780820380516001836020036101000a031916815260200191505b5094505050505060405180910390f35b60608060006001818054600181600116156101000203166002900480601f0160208091040260200160405190810160405280929190818152602001828054600181600116156101000203166002900480156101de5780601f106101b3576101008083540402835291602001916101de565b820191906000526020600020905b8154815290600101906020018083116101c157829003601f168201915b50505050509150808054600181600116156101000203166002900480601f01602080910402602001604051908101604052809291908181526020018280546001816001161561010002031660029004801561027a5780601f1061024f5761010080835404028352916020019161027a565b820191906000526020600020905b81548152906001019060200180831161025d57829003601f168201915b505050505090509150915090915600a165627a7a7230582045edee61e4d1ecb91123c7eefb988858f027e728e60b9693f5786481a57e75ad0029",
  "source": "pragma solidity ^0.4.4;\ncontract HelloEthSalon {\n  string greeting = \"Hello\";\n  string name = \"Reginald\";\n \n\n  function GetMessage() view public returns (string,string) {\n    return (greeting,name);\n  }\n}\n",
  "sourcePath": "/home/reginaldanthony/Demo/contracts/hello.sol",
  "compiler": {
    "name": "solc",
    "version": "0.4.24+commit.e67f0147.Emscripten.clang"
  },
  "schemaVersion": "2.0.1",
  "updatedAt": "2018-11-22T05:47:46.166Z"
}