{
  "contractName": "MyFirstContract",
  "abi": [
    {
      "constant": false,
      "inputs": [
        {
          "name": "amount",
          "type": "uint256"
        }
      ],
      "name": "checkValue",
      "outputs": [
        {
          "name": "",
          "type": "bool"
        }
      ],
      "payable": false,
      "stateMutability": "nonpayable",
      "type": "function"
    },
    {
      "constant": false,
      "inputs": [
        {
          "name": "amount",
          "type": "uint256"
        }
      ],
      "name": "withdraw",
      "outputs": [],
      "payable": false,
      "stateMutability": "nonpayable",
      "type": "function"
    },
    {
      "constant": true,
      "inputs": [],
      "name": "balance",
      "outputs": [
        {
          "name": "",
          "type": "uint256"
        }
      ],
      "payable": false,
      "stateMutability": "view",
      "type": "function"
    },
    {
      "constant": false,
      "inputs": [
        {
          "name": "amount",
          "type": "uint256"
        }
      ],
      "name": "deposit",
      "outputs": [],
      "payable": false,
      "stateMutability": "nonpayable",
      "type": "function"
    },
    {
      "constant": true,
      "inputs": [],
      "name": "loan",
      "outputs": [
        {
          "name": "",
          "type": "bool"
        }
      ],
      "payable": false,
      "stateMutability": "view",
      "type": "function"
    },
    {
      "constant": false,
      "inputs": [
        {
          "name": "newName",
          "type": "string"
        }
      ],
      "name": "setName",
      "outputs": [],
      "payable": false,
      "stateMutability": "nonpayable",
      "type": "function"
    },
    {
      "constant": true,
      "inputs": [],
      "name": "getName",
      "outputs": [
        {
          "name": "",
          "type": "string"
        }
      ],
      "payable": false,
      "stateMutability": "view",
      "type": "function"
    },
    {
      "constant": false,
      "inputs": [
        {
          "name": "newAge",
          "type": "uint256"
        }
      ],
      "name": "setAge",
      "outputs": [],
      "payable": false,
      "stateMutability": "nonpayable",
      "type": "function"
    },
    {
      "constant": true,
      "inputs": [],
      "name": "getAge",
      "outputs": [
        {
          "name": "",
          "type": "uint256"
        }
      ],
      "payable": false,
      "stateMutability": "view",
      "type": "function"
    }
  ],
  "bytecode": "0x6080604052600a80600081905550506104e08061001d6000396000f300608060405260043610610099576000357c0100000000000000000000000000000000000000000000000000000000900463ffffffff16806317d7de7c1461009e57806318db62fb1461012e5780632e1a7d4d14610173578063967e6e65146101a0578063b69ef8a8146101cb578063b6b55f25146101f6578063c47f002714610223578063d285b7b41461028c578063d5dcf127146102bb575b600080fd5b3480156100aa57600080fd5b506100b36102e8565b6040518080602001828103825283818151815260200191508051906020019080838360005b838110156100f35780820151818401526020810190506100d8565b50505050905090810190601f1680156101205780820380516001836020036101000a031916815260200191505b509250505060405180910390f35b34801561013a57600080fd5b506101596004803603810190808035906020019092919050505061038a565b604051808215151515815260200191505060405180910390f35b34801561017f57600080fd5b5061019e60048036038101908080359060200190929190505050610399565b005b3480156101ac57600080fd5b506101b56103ba565b6040518082815260200191505060405180910390f35b3480156101d757600080fd5b506101e06103c4565b6040518082815260200191505060405180910390f35b34801561020257600080fd5b50610221600480360381019080803590602001909291905050506103cd565b005b34801561022f57600080fd5b5061028a600480360381019080803590602001908201803590602001908080601f01602080910402602001604051908101604052809392919081815260200183838082843782019150505050505091929192905050506103df565b005b34801561029857600080fd5b506102a16103f9565b604051808215151515815260200191505060405180910390f35b3480156102c757600080fd5b506102e660048036038101908080359060200190929190505050610405565b005b606060018054600181600116156101000203166002900480601f0160208091040260200160405190810160405280929190818152602001828054600181600116156101000203166002900480156103805780601f1061035557610100808354040283529160200191610380565b820191906000526020600020905b81548152906001019060200180831161036357829003601f168201915b5050505050905090565b60008160005410159050919050565b6103a28161038a565b156103b7578060008082825403925050819055505b50565b6000600254905090565b60008054905090565b80600080828254019250508190555050565b80600190805190602001906103f592919061040f565b5050565b60008060005411905090565b8060028190555050565b828054600181600116156101000203166002900490600052602060002090601f016020900481019282601f1061045057805160ff191683800117855561047e565b8280016001018555821561047e579182015b8281111561047d578251825591602001919060010190610462565b5b50905061048b919061048f565b5090565b6104b191905b808211156104ad576000816000905550600101610495565b5090565b905600a165627a7a723058203199e913fe6ba1c9b5b5085f8648347baa252009fffca225ae02fe1ae89417b50029",
  "source": "pragma solidity ^0.4.0;\n\ninterface Regulator {\n    function checkValue(uint amount) external returns (bool);\n    function loan() external returns (bool);\n}\n\ncontract Bank is Regulator {\n    uint private value;\n    \n    constructor(uint amount) public {\n        value = amount;\n    }\n    \n    function  deposit(uint amount) public {\n        value += amount;\n    }\n    \n    function withdraw(uint amount) public {\n        if (checkValue(amount)) {\n            value -= amount;\n        }\n    }\n    \n    function balance() view public returns (uint)  {\n        return value;\n    }\n    \n    function checkValue(uint amount) public returns (bool) {\n        // Classic mistake in the tutorial value should be above the amount\n        return value >= amount;\n    }\n    \n    function loan() view public returns (bool) {\n        return value > 0;\n    }\n}\n\ncontract MyFirstContract is Bank(10) {\n    string private name;\n    uint private age;\n    \n    function setName(string newName) public {\n        name = newName;\n    }\n    \n    function getName()  view public returns (string)  {\n        return name;\n    }\n    \n    function setAge(uint newAge) public {\n        age = newAge;\n    }\n    \n    function getAge()  view public returns (uint) {\n        return age;\n    }\n}\n",
  "sourcePath": "/home/reginaldanthony/accion/Accion/ContractsBySrini/self_bank_regulator/contracts/self_bank_regulator.sol",
  "compiler": {
    "name": "solc",
    "version": "0.4.24+commit.e67f0147.Emscripten.clang"
  },
  "schemaVersion": "2.0.1",
  "updatedAt": "2018-11-23T11:37:34.629Z"
}