{
  "contractName": "Game",
  "abi": [
    {
      "constant": true,
      "inputs": [],
      "name": "player2",
      "outputs": [
        {
          "name": "",
          "type": "address"
        }
      ],
      "payable": false,
      "stateMutability": "view",
      "type": "function"
    },
    {
      "constant": true,
      "inputs": [],
      "name": "player2Played",
      "outputs": [
        {
          "name": "",
          "type": "bool"
        }
      ],
      "payable": false,
      "stateMutability": "view",
      "type": "function"
    },
    {
      "constant": true,
      "inputs": [],
      "name": "player1Played",
      "outputs": [
        {
          "name": "",
          "type": "bool"
        }
      ],
      "payable": false,
      "stateMutability": "view",
      "type": "function"
    },
    {
      "constant": true,
      "inputs": [],
      "name": "player1",
      "outputs": [
        {
          "name": "",
          "type": "address"
        }
      ],
      "payable": false,
      "stateMutability": "view",
      "type": "function"
    },
    {
      "constant": true,
      "inputs": [],
      "name": "winner",
      "outputs": [
        {
          "name": "",
          "type": "address"
        }
      ],
      "payable": false,
      "stateMutability": "view",
      "type": "function"
    },
    {
      "constant": true,
      "inputs": [],
      "name": "gameFinished",
      "outputs": [
        {
          "name": "",
          "type": "bool"
        }
      ],
      "payable": false,
      "stateMutability": "view",
      "type": "function"
    },
    {
      "inputs": [],
      "payable": false,
      "stateMutability": "nonpayable",
      "type": "constructor"
    },
    {
      "anonymous": false,
      "inputs": [
        {
          "indexed": false,
          "name": "player1",
          "type": "address"
        },
        {
          "indexed": false,
          "name": "player2",
          "type": "address"
        }
      ],
      "name": "StartEvent",
      "type": "event"
    },
    {
      "anonymous": false,
      "inputs": [
        {
          "indexed": false,
          "name": "player1Deposit",
          "type": "uint256"
        },
        {
          "indexed": false,
          "name": "player2Deposit",
          "type": "uint256"
        }
      ],
      "name": "EndRound",
      "type": "event"
    },
    {
      "anonymous": false,
      "inputs": [
        {
          "indexed": false,
          "name": "winner",
          "type": "address"
        },
        {
          "indexed": false,
          "name": "gains",
          "type": "uint256"
        }
      ],
      "name": "EndEvent",
      "type": "event"
    },
    {
      "constant": false,
      "inputs": [],
      "name": "registerAsAnOpponent",
      "outputs": [],
      "payable": false,
      "stateMutability": "nonpayable",
      "type": "function"
    },
    {
      "constant": false,
      "inputs": [],
      "name": "play",
      "outputs": [],
      "payable": true,
      "stateMutability": "payable",
      "type": "function"
    },
    {
      "constant": false,
      "inputs": [],
      "name": "withdraw",
      "outputs": [],
      "payable": false,
      "stateMutability": "nonpayable",
      "type": "function"
    }
  ],
  "bytecode": "0x608060405234801561001057600080fd5b50336000806101000a81548173ffffffffffffffffffffffffffffffffffffffff021916908373ffffffffffffffffffffffffffffffffffffffff160217905550610968806100606000396000f300608060405260043610610099576000357c0100000000000000000000000000000000000000000000000000000000900463ffffffff1680633ccfd60b1461009e57806359a5f12d146100b557806393e84cd91461010c578063a8b42f1f14610116578063c93f0c171461012d578063cfc9d1981461015c578063d30895e41461018b578063dfbf53ae146101e2578063f0f3249714610239575b600080fd5b3480156100aa57600080fd5b506100b3610268565b005b3480156100c157600080fd5b506100ca610335565b604051808273ffffffffffffffffffffffffffffffffffffffff1673ffffffffffffffffffffffffffffffffffffffff16815260200191505060405180910390f35b61011461035b565b005b34801561012257600080fd5b5061012b6105c8565b005b34801561013957600080fd5b50610142610742565b604051808215151515815260200191505060405180910390f35b34801561016857600080fd5b50610171610755565b604051808215151515815260200191505060405180910390f35b34801561019757600080fd5b506101a0610768565b604051808273ffffffffffffffffffffffffffffffffffffffff1673ffffffffffffffffffffffffffffffffffffffff16815260200191505060405180910390f35b3480156101ee57600080fd5b506101f761078d565b604051808273ffffffffffffffffffffffffffffffffffffffff1673ffffffffffffffffffffffffffffffffffffffff16815260200191505060405180910390f35b34801561024557600080fd5b5061024e6107b3565b604051808215151515815260200191505060405180910390f35b6000600460009054906101000a900460ff1680156102d357503373ffffffffffffffffffffffffffffffffffffffff16600460019054906101000a900473ffffffffffffffffffffffffffffffffffffffff1673ffffffffffffffffffffffffffffffffffffffff16145b15156102de57600080fd5b600554905060006005819055503373ffffffffffffffffffffffffffffffffffffffff166108fc829081150290604051600060405180830381858888f19350505050158015610331573d6000803e3d6000fd5b5050565b600160009054906101000a900473ffffffffffffffffffffffffffffffffffffffff1681565b600460009054906101000a900460ff1615801561041c57506000809054906101000a900473ffffffffffffffffffffffffffffffffffffffff1673ffffffffffffffffffffffffffffffffffffffff163373ffffffffffffffffffffffffffffffffffffffff16148061041b5750600160009054906101000a900473ffffffffffffffffffffffffffffffffffffffff1673ffffffffffffffffffffffffffffffffffffffff163373ffffffffffffffffffffffffffffffffffffffff16145b5b151561042757600080fd5b6000809054906101000a900473ffffffffffffffffffffffffffffffffffffffff1673ffffffffffffffffffffffffffffffffffffffff163373ffffffffffffffffffffffffffffffffffffffff1614156104c85760001515600160149054906101000a900460ff16151514151561049e57600080fd5b60018060146101000a81548160ff0219169083151502179055503460025401600281905550610510565b60001515600160159054906101000a900460ff1615151415156104ea57600080fd5b60018060156101000a81548160ff02191690831515021790555034600354016003819055505b600160149054906101000a900460ff1680156105385750600160159054906101000a900460ff165b156105c65760026003540260025410151561057c576105776000809054906101000a900473ffffffffffffffffffffffffffffffffffffffff166107c6565b6105c5565b60028054026003541015156105bb576105b6600160009054906101000a900473ffffffffffffffffffffffffffffffffffffffff166107c6565b6105c4565b6105c36108c1565b5b5b5b565b600073ffffffffffffffffffffffffffffffffffffffff16600160009054906101000a900473ffffffffffffffffffffffffffffffffffffffff1673ffffffffffffffffffffffffffffffffffffffff1614151561062557600080fd5b33600160006101000a81548173ffffffffffffffffffffffffffffffffffffffff021916908373ffffffffffffffffffffffffffffffffffffffff1602179055507f05062ef1976b884d99d1aaee35648bc8f04a60daec7fbc8bae2d41ec866a1d4d6000809054906101000a900473ffffffffffffffffffffffffffffffffffffffff16600160009054906101000a900473ffffffffffffffffffffffffffffffffffffffff16604051808373ffffffffffffffffffffffffffffffffffffffff1673ffffffffffffffffffffffffffffffffffffffff1681526020018273ffffffffffffffffffffffffffffffffffffffff1673ffffffffffffffffffffffffffffffffffffffff1681526020019250505060405180910390a1565b600160159054906101000a900460ff1681565b600160149054906101000a900460ff1681565b6000809054906101000a900473ffffffffffffffffffffffffffffffffffffffff1681565b600460019054906101000a900473ffffffffffffffffffffffffffffffffffffffff1681565b600460009054906101000a900460ff1681565b6001600460006101000a81548160ff02191690831515021790555080600460016101000a81548173ffffffffffffffffffffffffffffffffffffffff021916908373ffffffffffffffffffffffffffffffffffffffff160217905550600354600254016005819055507fdd4626d61eab5be61e1c2179da882655db2d85214feb67146baa1bb6c01c2d52600460019054906101000a900473ffffffffffffffffffffffffffffffffffffffff16600554604051808373ffffffffffffffffffffffffffffffffffffffff1673ffffffffffffffffffffffffffffffffffffffff1681526020018281526020019250505060405180910390a150565b6000600160146101000a81548160ff0219169083151502179055506000600160156101000a81548160ff0219169083151502179055507f3de62ea950fc2ed1ed823bb23086296729e73cdd05823251b76e36665ff267b5600254600354604051808381526020018281526020019250505060405180910390a15600a165627a7a72305820b817008b62ce3fecb78b6176310699d4d5ca52c797b25a248b328d5c6257997b0029",
  "source": "pragma solidity ^0.4.4;\n\ncontract Game {\n    address public player1;\n    address public player2;\n\n    bool public player1Played;\n    bool public player2Played;\n\n    uint private player1Deposit;\n    uint private player2Deposit;\n\n    bool public gameFinished; \n    address public winner;\n    uint gains;\n\n   event StartEvent(address player1, address player2);\n   event EndRound(uint player1Deposit, uint player2Deposit);\n   event EndEvent(address winner, uint gains);\n   \n   constructor() public {\n      player1 = msg.sender;\n   }\n   \n   function registerAsAnOpponent() public {\n        require(player2 == address(0));\n        player2 = msg.sender;\n        emit StartEvent(player1, player2);\n   }\n   \n\n  function play() public payable {\n    \trequire(!gameFinished && (msg.sender == player1 || msg.sender == player2));\n\n    \tif(msg.sender == player1) {\n    \t\trequire(player1Played == false);\n    \t\tplayer1Played = true;\n    \t\tplayer1Deposit = player1Deposit + msg.value;\n    \t} else { \n    \t\trequire(player2Played == false);\n    \t\tplayer2Played = true;\n    \t\tplayer2Deposit = player2Deposit + msg.value;\n    \t}\n    \tif(player1Played && player2Played) {\n    \t\tif(player1Deposit >= player2Deposit * 2) {\n    \t\t\tendOfGame(player1);\n    \t\t} else if (player2Deposit >= player1Deposit * 2) {\n    \t\t\tendOfGame(player2);\n    \t\t} else {\n                endOfRound();\n    \t\t}\n    \t}\n    }\n\n  function endOfRound() internal {\n    \tplayer1Played = false;\n    \tplayer2Played = false;\n    \temit EndRound(player1Deposit, player2Deposit);\n  }\n\n  function endOfGame(address _winner) internal {\n        gameFinished = true;\n        winner = _winner;\n        gains = player1Deposit + player2Deposit;\n        emit EndEvent(winner, gains);\n  }\n\n  function withdraw() public {\n        require(gameFinished && winner == msg.sender);\n\n        uint amount = gains;\n\n        gains = 0;\n        msg.sender.transfer(amount);\n    }\n\n}",
  "sourcePath": "/home/reginaldanthony/accion/Accion/ContractsBySrini/playFunGame/contracts/playFunGame.sol",
  "compiler": {
    "name": "solc",
    "version": "0.4.24+commit.e67f0147.Emscripten.clang"
  },
  "schemaVersion": "2.0.1",
  "updatedAt": "2018-11-23T14:08:38.788Z"
}