{
  "contractName": "Bank",
  "abi": [
    {
      "constant": true,
      "inputs": [],
      "name": "value",
      "outputs": [
        {
          "name": "",
          "type": "uint256"
        }
      ],
      "payable": false,
      "stateMutability": "view",
      "type": "function"
    },
    {
      "inputs": [
        {
          "name": "amount",
          "type": "uint256"
        }
      ],
      "payable": false,
      "stateMutability": "nonpayable",
      "type": "constructor"
    },
    {
      "constant": false,
      "inputs": [
        {
          "name": "amount",
          "type": "uint256"
        }
      ],
      "name": "deposit",
      "outputs": [],
      "payable": false,
      "stateMutability": "nonpayable",
      "type": "function"
    },
    {
      "constant": false,
      "inputs": [
        {
          "name": "amount",
          "type": "uint256"
        }
      ],
      "name": "withdraw",
      "outputs": [],
      "payable": false,
      "stateMutability": "nonpayable",
      "type": "function"
    },
    {
      "constant": true,
      "inputs": [],
      "name": "balance",
      "outputs": [
        {
          "name": "",
          "type": "uint256"
        }
      ],
      "payable": false,
      "stateMutability": "view",
      "type": "function"
    },
    {
      "constant": false,
      "inputs": [
        {
          "name": "amount",
          "type": "uint256"
        }
      ],
      "name": "checkValue",
      "outputs": [
        {
          "name": "",
          "type": "bool"
        }
      ],
      "payable": false,
      "stateMutability": "nonpayable",
      "type": "function"
    },
    {
      "constant": true,
      "inputs": [],
      "name": "loan",
      "outputs": [
        {
          "name": "",
          "type": "bool"
        }
      ],
      "payable": false,
      "stateMutability": "view",
      "type": "function"
    }
  ],
  "bytecode": "0x608060405234801561001057600080fd5b5060405160208061027483398101806040528101908080519060200190929190505050806000819055505061022a8061004a6000396000f300608060405260043610610078576000357c0100000000000000000000000000000000000000000000000000000000900463ffffffff16806318db62fb1461007d5780632e1a7d4d146100c25780633fa4f245146100ef578063b69ef8a81461011a578063b6b55f2514610145578063d285b7b414610172575b600080fd5b34801561008957600080fd5b506100a8600480360381019080803590602001909291905050506101a1565b604051808215151515815260200191505060405180910390f35b3480156100ce57600080fd5b506100ed600480360381019080803590602001909291905050506101b0565b005b3480156100fb57600080fd5b506101046101d1565b6040518082815260200191505060405180910390f35b34801561012657600080fd5b5061012f6101d7565b6040518082815260200191505060405180910390f35b34801561015157600080fd5b50610170600480360381019080803590602001909291905050506101e0565b005b34801561017e57600080fd5b506101876101f2565b604051808215151515815260200191505060405180910390f35b60008160005410159050919050565b6101b9816101a1565b156101ce578060008082825403925050819055505b50565b60005481565b60008054905090565b80600080828254019250508190555050565b600080600054119050905600a165627a7a723058204678316b55f6c447cd52e7126ae0b94745652c5d6778320db708419f1ad710da0029",
  "source": "pragma solidity ^0.4.4;\n\ninterface Regulator {\n    function checkValue(uint amount) external returns (bool);\n    function loan() external returns (bool);\n}\n\ncontract Bank is Regulator {\n    uint public value;\n    \n    constructor(uint amount) public {\n        value = amount;\n    }\n    \n    function  deposit(uint amount) public {\n        value += amount;\n    }\n    \n    function withdraw(uint amount) public {\n        if (checkValue(amount)) {\n            value -= amount;\n        }\n    }\n    \n    function balance() view public returns (uint)  {\n        return value;\n    }\n    \n    function checkValue(uint amount) public returns (bool) {\n        // Classic mistake in the tutorial value should be above the amount\n        return value >= amount;\n    }\n    \n    function loan() view public returns (bool) {\n        return value > 0;\n    }\n}\n\ncontract MyFirstContract is Bank(10) {\n    string private name;\n    uint private age;\n    \n    function setName(string newName) public {\n        name = newName;\n    }\n    \n    function getName()  view public returns (string)  {\n        return name;\n    }\n    \n    function setAge(uint newAge) public {\n        age = newAge;\n    }\n    \n    function getAge()  view public returns (uint) {\n        return age;\n    }\n}",
  "sourcePath": "/home/reginaldanthony/accion/Accion/ContractsBySrini/self_bank_regulator/contracts/self_bank_regulator.sol",
  "compiler": {
    "name": "solc",
    "version": "0.4.24+commit.e67f0147.Emscripten.clang"
  },
  "schemaVersion": "2.0.1",
  "updatedAt": "2018-11-29T10:24:44.912Z"
}